:1000000020C100003EC100003CC100003AC1000018
:1000100038C1000036C1000034C1000032C1000008
:1000200030C100002EC100002CC100002AC1000018
:1000300028C1000026C1000024C1000022C1000028
:1000400020C100001EC100001CC100001AC1000038
:1000500018C10000BAC5000014C1000012C10000A0
:1000600010C10000C6C200007AC200000AC1000030
:1000700008C1000006C1000004C1000002C1000068
:1000800000C10000FEC00000FCC00000FAC000007B
:10009000F8C00000F6C00000F4C00000F2C000008C
:1000A000F0C00000EEC00000ECC00000EAC000009C
:1000B000E8C00000E6C00000E4C00000E2C00000AC
:1000C000E0C00000DEC00000DCC00000DAC00000BC
:1000D000D8C00000D6C00000D4C00000D2C00000CC
:1000E000D0C00000636D643E200057656C636F6D87
:1000F0006520746F20454550524F4D2050726F67F8
:1001000072616D6D696E672E0A0D0020203F202000
:10011000202D20446973706C6179207468697320A4
:1001200068656C70206D656E750A0D002020726325
:10013000202D20526561642063686172616374657B
:10014000722066726F6D20454550524F4D0A0D006A
:1001500020207763202D20577269746520636861C1
:1001600072616374657220746F20454550524F4D23
:100170000A0D002020636520202D20436C656172EC
:100180002063757272656E74206572726F720A0DEB
:10019000002020676520202D20446973706C6179F0
:1001A000206572726F7220636F64650A0D002020F3
:1001B000436F6D6D616E6473206172653A0A0D0064
:1001C000636D643E200043686172203D2000202062
:1001D000456E74657220454550524F4D20616464F0
:1001E000726573732C20313130202D203430393535
:1001F0003A20002020456E74657220454550524FCC
:100200004D20616464726573732C20313130202D70
:1002100020343039353A20002020456E7465722034
:100220006368617220746F2073746F72653A200086
:100230000A0D0020204572726F72203D20000A0DC9
:10024000000011241FBECFEFD1E2DEBFCDBF00E022
:100250000CBF12E0A0E0B2E0ECECF2E100E00BBF7A
:1002600002C007900D92A433B107D9F723E0A4E3AD
:10027000B2E001C01D92A836B207E1F707D50C9491
:10028000640941C1EF92FF920F931F93CF93DF93C5
:10029000CDB7DEB765970FB6F894DEBF0FBECDBF02
:1002A0008C019B017A016115710551F4DC01ED911E
:1002B000FC91119780E38083ED91FC9111825AC0EB
:1002C00077230CF04FC0319521953109DC01ED9178
:1002D000FC9111978DE280838D919C9111970196ED
:1002E0008D939C93FE01319685E1DF011D928A95E5
:1002F000E9F721153105D9F0FE017596C901B7015D
:10030000CDD48A3091051CF4805D829309C0B0E1A0
:10031000EB16F10429F4DC01A650BE4F8C918293B8
:10032000C901B701BBD49B01672B41F702C0FE0195
:1003300075968081882389F03196D8012D913C9162
:10034000D9018C93D8012D913C9111972F5F3F4F8C
:100350002D933C9381918111F0CFD801ED91FC91C7
:10036000108208C0FE01319685E1DF011D928A9559
:10037000E9F7C2CF65960FB6F894DEBF0FBECDBFCA
:10038000DF91CF911F910F91FF90EF900895EF9221
:10039000FF920F931F93CF93DF93DC01EB01FC01DE
:1003A00001900020E9F73197E81BF90B7F018C9150
:1003B0008D3231F4119681E0E81AF10841E001C074
:1003C00040E0F70131971E161F0614F561E070E05A
:1003D00020E030E0CA30D10561F4CB01880F991FCD
:1003E000660F771F660F771F660F771F680F791FDD
:1003F00009C0C031D10531F462957295707F7627BE
:10040000607F76272F5F3F4F2E173F071CF302C0F8
:1004100061E070E01E141F04DCF5FD01EA0EFB1E16
:1004200000E010E021918FE9820F863068F430E01F
:1004300027553109269FC001279F900D369F900DAB
:100440001124080F191F1DC08FEB820F863068F42E
:1004500030E027533109269FC001279F900D369F1A
:10046000900D1124080F191F0CC030E020533109E2
:10047000269FC001279F900D369F900D1124080FD5
:10048000191FCB01BE010AD4EE15FF0559F602C0B3
:1004900000E010E0442329F088279927801B910B66
:1004A00001C0C801DF91CF911F910F91FF90EF9094
:1004B00008950F931F93803251F4FB011082FA01CB
:1004C0001082F9011082F801108280E006C08A5281
:1004D000813510F480E001C08CE01F910F910895E8
:1004E00082E084BD95E095BD93EC97BD18BC8093E8
:1004F0006E0016BC089590914D03911103C0809336
:100500004D03599808951F920F920FB60F92112420
:100510000BB60F922F933F934F935F936F937F93FD
:100520008F939F93AF93BF93EF93FF938EE0E3DF9F
:10053000FF91EF91BF91AF919F918F917F916F91BB
:100540005F914F913F912F910F900BBE0F900FBE77
:100550000F901F90189510924D03599A08951F926D
:100560000F920FB60F9211240BB60F922F933F9359
:100570008F939F93EF93FF93E1ECF0E080818F7D69
:1005800080837894E0914F02F09150022081809115
:100590004F02909150028C54934030F480914F025E
:1005A00090915002019602C083E592E09093500230
:1005B00080934F022093C60020914F023091500249
:1005C00080915102909152022817390729F0E1ECED
:1005D000F0E0808180628083FF91EF919F918F9105
:1005E0003F912F910F900BBE0F900FBE0F901F9059
:1005F00018951F920F920FB60F9211240BB60F92FF
:100600002F933F934F935F936F937F938F939F931A
:10061000AF93BF93CF93EF93FF93C091C000E0914E
:100620003702F09138028091C600808340913702F2
:100630005091380280913702909138028E54924046
:1006400030F48091370290913802019602C089E31C
:1006500092E09093380280933702209137023091D4
:10066000380280913502909136022817390731F40B
:10067000509338024093370285E03DDFC4FF02C04B
:1006800086E039DFC3FF02C087E035DFC2FF02C06A
:1006900088E031DFFF91EF91CF91BF91AF919F91B2
:1006A0008F917F916F915F914F913F912F910F901B
:1006B0000BBE0F900FBE0F901F9018950F931F93B6
:1006C000CF93DF93FC01D0E063E572E0062F172F94
:1006D000C1E01CC020819C2F2223C9F0A0915102AF
:1006E000B09152022C9380915102909152028C54FD
:1006F000934030F48091510290915202019601C0D2
:10070000CB01909352028093510231969D2F2091FC
:100710005102309152022C54334038F4209151024E
:10072000309152022F5F3F4F02C0202F312F409156
:100730004F02509150022417350719F0992351F2B6
:100740000FC0E1ECF0E0808180628083911105C0F0
:1007500084E0D1DE8FEF9FEF0AC080E090E007C019
:10076000E1ECF0E080818062808380E090E0DF91C6
:10077000CF911F910F9108950F931F93CF93DF9304
:10078000FC01D0E063E572E0062F172FC1E01CC02A
:1007900024919C2F2223C9F0A0915102B0915202C2
:1007A0002C9380915102909152028C54934030F4DA
:1007B0008091510290915202019601C0CB01909319
:1007C00052028093510231969D2F20915102309117
:1007D00052022C54334038F420915102309152028D
:1007E0002F5F3F4F02C0202F312F40914F02509179
:1007F00050022417350719F0992351F20FC0E1EC8C
:10080000F0E0808180628083911105C084E073DE16
:100810008FEF9FEF0AC080E090E007C0E1ECF0E0CE
:1008200080818062808380E090E0DF91CF911F9192
:100830000F9108958FEC90E09093C5008093C400D1
:1008400086E38093C20088E98093C1001092C000C3
:1008500089E392E0909338028093370290933602B6
:100860008093350283E592E0909352028093510287
:100870009093500280934F028AEE90E07DDF84EEE9
:1008800090E07ACF0895209137023091380280911C
:1008900035029091360228173907D1F0E0913502E0
:1008A000F0913602808120913502309136022E542B
:1008B000324038F420913502309136022F5F3F4F9D
:1008C00002C029E332E030933602209335020895C6
:1008D00080E008957F928F929F92AF92BF92CF92C5
:1008E000DF92EF92FF920F931F93CF93DF93CDB7D9
:1008F000DEB7A9970FB6F894DEBF0FBECDBF0F2E9F
:10090000F2E5EF2EF3E0FF2EF02D0F2EF6E0BF2ED6
:10091000F02D0F2EFAE09F2EF02D0F2EFDE0AF2EC2
:10092000F02D0F2EF9E1CF2EF2E0DF2EF02D0F2E5D
:10093000F5E07F2EF02D6894882482F80BC18D306D
:1009400009F0F5C0E0910202F09103021082F092EA
:100950000302E09202028EE392E00EDF80915103E7
:10096000843009F457C018F4882341F0D2C0853090
:1009700009F45FC0863009F4B3C0CBC06BE072E00D
:10098000C701C9D1892B21F481E080935103C3C0F1
:100990006DE072E0C701BFD1892BC9F410914D03FE
:1009A00083E392E0E9DE81E090E08C0F9D1F9DA340
:1009B0008CA3612F70E04AE050E0CE01849662DCA7
:1009C000CE0101967BDE80E392E0D6DEA4C060E13A
:1009D00072E0C701A0D1892B11F4BDDD9CC063E199
:1009E00072E0C70198D1892B31F488E192E0C4DE2E
:1009F0008092510390C066E172E0C7018CD1892BCF
:100A000031F483EF91E0B8DE7092510384C010920C
:100A1000510381C0F7018081882341F080934E0308
:100A20008EEC91E0A9DEB092510375C01092510393
:100A300072C0F7018081882309F44FC06AE070E03A
:100A4000C701A5DC9093500380934F0310924E038F
:100A50008E36910508F43FC08E01075D1F4F9E0141
:100A6000285D3F4FAE01495D5F4FBE016A5D7F4F1C
:100A700080E01FDD81112CC066EC71E0CE01019693
:100A800043D180914E0388879986AA861B86CE0122
:100A9000019614DE8EA11F928F938FA11F928F93C8
:100AA00088A51F928F9389A51F928F93DF92CF9273
:100AB00081E090E08C0F9D1F9F938F933CD1CE01DE
:100AC0000196FCDD0FB6F894DEBF0FBECDBF05C0AA
:100AD0008CE011DD02C080E10EDD109251031BC0DD
:100AE000F7018081882391F06AE070E0C7014FDC54
:100AF0009093500380934F038E36910528F0B701F1
:100B0000CE01019611D102C080E1F5DC10925103B3
:100B100002C010925103F0920302E092020280910F
:100B20005103811117C080EC91E026DE13C00091C3
:100B3000020210910302F3E006361F0758F4F80191
:100B400080831182C801BADD0F5F1F4F109303022B
:100B50000093020298DE8111F2CE80915103813020
:100B600069F48EEA91E008DE81E991E005DE83E731
:100B700091E002DE82E08093510313C0823051F491
:100B800080E591E0F9DD8CE291E0F6DD83E0809391
:100B9000510307C0833029F48BE091E0EDDD109222
:100BA0005103A9960FB6F894DEBF0FBECDBFDF91FB
:100BB000CF911F910F91FF90EF90DF90CF90BF905A
:100BC000AF909F908F907F9008951F920F920FB6D5
:100BD0000F9211240BB60F922F933F934F935F9375
:100BE0006F937F938F939F93AF93BF93EF93FF93F5
:100BF00080913402813019F482E07DDC34C081E0E0
:100C0000809334022091000230910102283C31058A
:100C100038F081E090E0909301028093000221C0BF
:100C2000A9014F5F5F4F50930102409300029A0168
:100C3000ADECBCEC46D0929582958F7089279F7061
:100C4000892764E1689F9001699F300D1124421744
:100C5000530709F4489A9A0123703327232B09F488
:100C600039DE10923402FF91EF91BF91AF919F91C5
:100C70008F917F916F915F914F913F912F910F9045
:100C80000BBE0F900FBE0F901F901895F8948FEF2A
:100C90008AB98BB925DCCEDD7894FFCF97FB072E80
:100CA00016F4009406D077FD08D01AD007FC05D0C2
:100CB0003EF4909581959F4F0895709561957F4F73
:100CC0000895A29FB001B39FC001A39F700D811D25
:100CD0001124911DB29F700D811D1124911D089545
:100CE000AA1BBB1B51E107C0AA1FBB1FA617B70752
:100CF00010F0A61BB70B881F991F5A95A9F780956E
:100D00009095BC01CD010895FB01DC0105900D9289
:100D10000020E1F70895FB01DC018D91019080191D
:100D20000110D9F3990B0895FB01DC0101900D929C
:100D30000020E1F708950F931F93CF93DF93CDB772
:100D4000DEB72E970FB6F894DEBF0FBECDBF0E896B
:100D50001F8986E08C831A8309838FEF9FE79E8328
:100D60008D83AE01465E5F4F688D798DCE01019611
:100D700011D02F813885F801E20FF31F10822E96D3
:100D80000FB6F894DEBF0FBECDBFDF91CF911F919C
:100D90000F9108952F923F924F925F926F927F92A0
:100DA0008F929F92AF92BF92CF92DF92EF92FF927B
:100DB0000F931F93CF93DF93CDB7DEB72C970FB66A
:100DC000F894DEBF0FBECDBF7C016B018A01FC0130
:100DD00017821682838181FFB0C1CE0101964C013A
:100DE000F7019381F60193FD859193FF81916F0146
:100DF000882309F49EC1853239F493FD859193FFD0
:100E000081916F01853221F4B70190E0C7D1E8CF1D
:100E1000512C312C20E02032A0F48B3269F030F4D8
:100E2000803259F0833269F420612CC08D3239F060
:100E3000803339F4216026C02260246023C02860FA
:100E400021C027FD27C030ED380F3A3078F426FF57
:100E500006C0FAE05F9E300D1124532E13C08AE0C5
:100E6000389E300D1124332E20620CC08E3221F4B6
:100E700026FD5FC1206406C08C3611F4206802C0D4
:100E8000883641F4F60193FD859193FF81916F01BE
:100E90008111C1CF982F9F7D9554933028F40C5F1A
:100EA0001F4FFFE3F9830DC0833631F0833771F0B4
:100EB000833509F057C021C0F801808189830E5F16
:100EC0001F4F44244394512C540114C03801F2E0C4
:100ED0006F0E711CF801A080B18026FF03C0652D44
:100EE00070E002C06FEF7FEFC5012C874CD12C0161
:100EF00083012C852F77222E16C03801F2E06F0E69
:100F0000711CF801A080B18026FF03C0652D70E040
:100F100002C06FEF7FEFC5012C872AD12C012C85F1
:100F20002068222E830123FC19C0832D90E04816EF
:100F30005906A0F4B70180E290E030D13A94F5CFA1
:100F4000F50127FC859127FE81915F01B70190E0B3
:100F500025D131103A94F1E04F1A5108411451044F
:100F600079F7DEC0843611F0893631F5F80127FFB4
:100F700007C060817181828193810C5F1F4F08C01F
:100F800060817181072E000C880B990B0E5F1F4F3B
:100F90002F76722E97FF09C0909580957095619578
:100FA0007F4F8F4F9F4F2068722E2AE030E0A401C0
:100FB0002DD1A82EA81843C0853729F42F7EB22E34
:100FC0002AE030E025C0F22FF97FBF2E8F36C1F026
:100FD00018F4883579F0ADC0803719F0883721F0E2
:100FE000A8C02F2F2061B22EB4FE0DC08B2D8460BF
:100FF000B82E09C024FF0AC09F2F9660B92E06C0E4
:1010000028E030E005C020E130E002C020E132E01D
:10101000F801B7FE07C060817181828193810C5F06
:101020001F4F06C06081718180E090E00E5F1F4F0E
:10103000A401ECD0A82EA818FB2DFF777F2E76FEFA
:101040000BC0372D3E7FA51450F474FE0AC072FC0D
:1010500008C0372D3E7E05C0BA2C372D03C0BA2CF0
:1010600001C0B52C34FF0DC0FE01EA0DF11D8081D9
:10107000803311F4397E09C032FF06C0B394B394B3
:1010800004C0832F867809F0B39433FD12C030FF7B
:1010900006C05A2CB31418F4530C5B18B32CB314B9
:1010A00060F4B70180E290E03C8778D0B3943C854F
:1010B000F6CFB31410F43B1801C0312C34FF11C02B
:1010C000B70180E390E03C8769D03C8532FF16C0D1
:1010D00031FD03C088E790E002C088E590E0B701E9
:1010E0000CC0832F867851F031FF02C08BE201C023
:1010F00080E237FD8DE2B70190E050D0A51430F4C6
:10110000B70180E390E04AD05A94F8CFAA94F40152
:10111000EA0DF11D8081B70190E040D0A110F6CF1B
:10112000332009F45DCEB70180E290E037D03A94E5
:10113000F7CFF7018681978102C08FEF9FEF2C9642
:101140000FB6F894DEBF0FBECDBFDF91CF911F91D8
:101150000F91FF90EF90DF90CF90BF90AF909F9056
:101160008F907F906F905F904F903F902F90089559
:10117000FC010590615070400110D8F78095909562
:101180008E0F9F1F0895FC01615070400190011067
:10119000D8F7809590958E0F9F1F08950F931F93FA
:1011A000CF93DF93FB01238121FD03C08FEF9FEFDE
:1011B00028C022FF16C046815781248135814217FD
:1011C000530744F4A081B1819D012F5F3F4F3183CC
:1011D00020838C93268137812F5F3F4F378326836F
:1011E00010C0EB01092F182F0084F185E02D19950F
:1011F000892BE1F68E819F8101969F838E83812FBB
:10120000902FDF91CF911F910F910895FA01AA2796
:10121000283051F1203181F1E8946F936E7F6E5F39
:101220007F4F8F4F9F4FAF4FB1E03ED0B4E03CD0E7
:10123000670F781F891F9A1FA11D680F791F8A1FCA
:10124000911DA11D6A0F711D811D911DA11D20D031
:1012500009F468943F912AE0269F11243019305DEB
:101260003193DEF6CF010895462F4770405D4193DC
:10127000B3E00FD0C9F7F6CF462F4F70405D4A3329
:1012800018F0495D31FD4052419302D0A9F7EACFF1
:10129000B4E0A6959795879577956795BA95C9F720
:1012A00000976105710508959B01AC010A2E069413
:1012B0005795479537952795BA95C9F7620F731FCC
:0C12C000841F951FA01D0895F894FFCF17
:1012CC0001005203616263646566003F006765005C
:1012DC006365007763007263005365676D656E74B8
:1012EC002044617461203D202558255825582558E7
:0412FC000A0D0000D7
:00000001FF
